{
  "address": "0x04d4d72c64121CA77296B098e17FBa56f90108aD",
  "abi": [
    {
      "inputs": [
        {
          "internalType": "uint256",
          "name": "_feePercent",
          "type": "uint256"
        }
      ],
      "stateMutability": "nonpayable",
      "type": "constructor"
    },
    {
      "inputs": [],
      "name": "ReentrancyGuardReentrantCall",
      "type": "error"
    },
    {
      "anonymous": false,
      "inputs": [
        {
          "indexed": false,
          "internalType": "uint256",
          "name": "itemId",
          "type": "uint256"
        },
        {
          "indexed": true,
          "internalType": "address",
          "name": "nft",
          "type": "address"
        },
        {
          "indexed": false,
          "internalType": "uint256",
          "name": "tokenId",
          "type": "uint256"
        },
        {
          "indexed": false,
          "internalType": "uint256",
          "name": "price",
          "type": "uint256"
        },
        {
          "indexed": true,
          "internalType": "address",
          "name": "seller",
          "type": "address"
        },
        {
          "indexed": true,
          "internalType": "address",
          "name": "buyer",
          "type": "address"
        }
      ],
      "name": "Bought",
      "type": "event"
    },
    {
      "anonymous": false,
      "inputs": [
        {
          "indexed": false,
          "internalType": "uint256",
          "name": "itemId",
          "type": "uint256"
        },
        {
          "indexed": true,
          "internalType": "address",
          "name": "nft",
          "type": "address"
        },
        {
          "indexed": false,
          "internalType": "uint256",
          "name": "tokenId",
          "type": "uint256"
        },
        {
          "indexed": false,
          "internalType": "uint256",
          "name": "price",
          "type": "uint256"
        },
        {
          "indexed": true,
          "internalType": "address",
          "name": "seller",
          "type": "address"
        }
      ],
      "name": "Listed",
      "type": "event"
    },
    {
      "anonymous": false,
      "inputs": [
        {
          "indexed": false,
          "internalType": "uint256",
          "name": "itemId",
          "type": "uint256"
        },
        {
          "indexed": true,
          "internalType": "address",
          "name": "nft",
          "type": "address"
        },
        {
          "indexed": false,
          "internalType": "uint256",
          "name": "tokenId",
          "type": "uint256"
        },
        {
          "indexed": true,
          "internalType": "address",
          "name": "seller",
          "type": "address"
        }
      ],
      "name": "Unlisted",
      "type": "event"
    },
    {
      "inputs": [],
      "name": "feeAccount",
      "outputs": [
        {
          "internalType": "address payable",
          "name": "",
          "type": "address"
        }
      ],
      "stateMutability": "view",
      "type": "function"
    },
    {
      "inputs": [],
      "name": "feePercent",
      "outputs": [
        {
          "internalType": "uint256",
          "name": "",
          "type": "uint256"
        }
      ],
      "stateMutability": "view",
      "type": "function"
    },
    {
      "inputs": [],
      "name": "getAllListedItems",
      "outputs": [
        {
          "internalType": "uint256[]",
          "name": "",
          "type": "uint256[]"
        }
      ],
      "stateMutability": "view",
      "type": "function"
    },
    {
      "inputs": [
        {
          "internalType": "address",
          "name": "_seller",
          "type": "address"
        }
      ],
      "name": "getSellerItems",
      "outputs": [
        {
          "internalType": "uint256[]",
          "name": "",
          "type": "uint256[]"
        }
      ],
      "stateMutability": "view",
      "type": "function"
    },
    {
      "inputs": [
        {
          "internalType": "uint256",
          "name": "_itemId",
          "type": "uint256"
        }
      ],
      "name": "getTotalPrice",
      "outputs": [
        {
          "internalType": "uint256",
          "name": "",
          "type": "uint256"
        }
      ],
      "stateMutability": "view",
      "type": "function"
    },
    {
      "inputs": [],
      "name": "itemCount",
      "outputs": [
        {
          "internalType": "uint256",
          "name": "",
          "type": "uint256"
        }
      ],
      "stateMutability": "view",
      "type": "function"
    },
    {
      "inputs": [
        {
          "internalType": "uint256",
          "name": "",
          "type": "uint256"
        }
      ],
      "name": "items",
      "outputs": [
        {
          "internalType": "uint256",
          "name": "itemId",
          "type": "uint256"
        },
        {
          "internalType": "contract IERC721",
          "name": "nft",
          "type": "address"
        },
        {
          "internalType": "uint256",
          "name": "tokenId",
          "type": "uint256"
        },
        {
          "internalType": "uint256",
          "name": "price",
          "type": "uint256"
        },
        {
          "internalType": "address payable",
          "name": "seller",
          "type": "address"
        },
        {
          "internalType": "bool",
          "name": "sold",
          "type": "bool"
        },
        {
          "internalType": "bool",
          "name": "listed",
          "type": "bool"
        }
      ],
      "stateMutability": "view",
      "type": "function"
    },
    {
      "inputs": [
        {
          "internalType": "contract IERC721",
          "name": "_nft",
          "type": "address"
        },
        {
          "internalType": "uint256",
          "name": "_tokenId",
          "type": "uint256"
        },
        {
          "internalType": "uint256",
          "name": "_price",
          "type": "uint256"
        }
      ],
      "name": "listNFT",
      "outputs": [],
      "stateMutability": "nonpayable",
      "type": "function"
    },
    {
      "inputs": [
        {
          "internalType": "uint256",
          "name": "_itemId",
          "type": "uint256"
        }
      ],
      "name": "purchaseNFT",
      "outputs": [],
      "stateMutability": "payable",
      "type": "function"
    },
    {
      "inputs": [
        {
          "internalType": "address",
          "name": "",
          "type": "address"
        },
        {
          "internalType": "uint256",
          "name": "",
          "type": "uint256"
        }
      ],
      "name": "sellerItems",
      "outputs": [
        {
          "internalType": "uint256",
          "name": "",
          "type": "uint256"
        }
      ],
      "stateMutability": "view",
      "type": "function"
    },
    {
      "inputs": [
        {
          "internalType": "uint256",
          "name": "_itemId",
          "type": "uint256"
        }
      ],
      "name": "unlistNFT",
      "outputs": [],
      "stateMutability": "nonpayable",
      "type": "function"
    }
  ],
  "transactionHash": "0xe88892423b252464c6cca31d3d25cbfe322accabed66c258d766f22dd7406c20",
  "args": [
    5
  ],
  "numDeployments": 2,
  "solcInputHash": "d04a66cced216e1d68d50f53ea7ceef0",
  "bytecode": "0x60c060405234801561001057600080fd5b50604051610ef3380380610ef383398101604081905261002f91610040565b60016000553360805260a052610059565b60006020828403121561005257600080fd5b5051919050565b60805160a051610e6761008c6000396000818161017f0152610b7c01526000818161011d015261051c0152610e676000f3fe60806040526004361061009c5760003560e01c80637fd6f15c116100645780637fd6f15c1461016d578063961f0944146101a1578063ad05f1b4146101c1578063bfb231d2146101e1578063ca7dd37514610292578063d3cbb62b146102b257600080fd5b8063150bde03146100a15780632c02338f146100b65780633b1b1ad0146100e957806365e17c9d1461010b5780636bfb0d0114610157575b600080fd5b6100b46100af366004610c63565b6102d2565b005b3480156100c257600080fd5b506100d66100d1366004610c91565b610605565b6040519081526020015b60405180910390f35b3480156100f557600080fd5b506100fe610636565b6040516100e09190610cbd565b34801561011757600080fd5b5061013f7f000000000000000000000000000000000000000000000000000000000000000081565b6040516001600160a01b0390911681526020016100e0565b34801561016357600080fd5b506100d660015481565b34801561017957600080fd5b506100d67f000000000000000000000000000000000000000000000000000000000000000081565b3480156101ad57600080fd5b506100b46101bc366004610c63565b61071b565b3480156101cd57600080fd5b506100b46101dc366004610d01565b6108bb565b3480156101ed57600080fd5b5061024e6101fc366004610c63565b60026020819052600091825260409091208054600182015492820154600383015460049093015491936001600160a01b039081169391929081169060ff600160a01b8204811691600160a81b90041687565b604080519788526001600160a01b0396871660208901528701949094526060860192909252909216608084015290151560a0830152151560c082015260e0016100e0565b34801561029e57600080fd5b506100d66102ad366004610c63565b610b73565b3480156102be57600080fd5b506100fe6102cd366004610d36565b610bcd565b6102da610c39565b600081815260026020526040902081158015906102f957506001548211155b61033f5760405162461bcd60e51b8152602060048201526012602482015271125d195b48191bd95cdb89dd08195e1a5cdd60721b60448201526064015b60405180910390fd5b6004810154600160a81b900460ff16801561036657506004810154600160a01b900460ff16155b6103b25760405162461bcd60e51b815260206004820152601f60248201527f4974656d206e6f74206c6973746564206f7220616c726561647920736f6c64006044820152606401610336565b80600301543410156103fd5760405162461bcd60e51b8152602060048201526014602482015273125b9cdd59999a58da595b9d081c185e5b595b9d60621b6044820152606401610336565b600061040883610b73565b9050803410156104685760405162461bcd60e51b815260206004820152602560248201527f496e73756666696369656e74207061796d656e7420666f72207072696365202b604482015264206665657360d81b6064820152608401610336565b600182015460028301546040516323b872dd60e01b815230600482015233602482015260448101919091526001600160a01b03909116906323b872dd90606401600060405180830381600087803b1580156104c257600080fd5b505af11580156104d6573d6000803e3d6000fd5b505050600483015460038401546040516001600160a01b03909216925080156108fc02916000818181858888f19350505050158015610519573d6000803e3d6000fd5b507f00000000000000000000000000000000000000000000000000000000000000006001600160a01b03166108fc8360030154836105579190610d70565b6040518115909202916000818181858888f1935050505015801561057f573d6000803e3d6000fd5b50600482018054600160a01b61ffff60a01b1982161790915560018301546002840154600385015460408051888152602081019390935282015233926001600160a01b039081169216907f8b4c9c8a607d67b321582dd8461041b1dc2ceeca70c8b7f37f8e02095cf2e76d9060600160405180910390a450506106026001600055565b50565b6003602052816000526040600020818154811061062157600080fd5b90600052602060002001600091509150505481565b6060600060015467ffffffffffffffff81111561065557610655610d83565b60405190808252806020026020018201604052801561067e578160200160208202803683370190505b509050600060015b600154811161071357600081815260026020526040902060040154600160a81b900460ff1680156106d05750600081815260026020526040902060040154600160a01b900460ff16155b1561070157808383815181106106e8576106e8610d99565b6020908102919091010152816106fd81610daf565b9250505b8061070b81610daf565b915050610686565b508152919050565b600081815260026020526040902060048101546001600160a01b031633146107755760405162461bcd60e51b815260206004820152600d60248201526c4e6f7420796f7572206974656d60981b6044820152606401610336565b6004810154600160a81b900460ff16801561079c57506004810154600160a01b900460ff16155b6107e85760405162461bcd60e51b815260206004820152601f60248201527f4974656d206e6f74206c6973746564206f7220616c726561647920736f6c64006044820152606401610336565b6004818101805460ff60a81b19169055600182015460028301546040516323b872dd60e01b8152309381019390935233602484015260448301526001600160a01b0316906323b872dd90606401600060405180830381600087803b15801561084f57600080fd5b505af1158015610863573d6000803e3d6000fd5b505050506001810154600282015460408051858152602081019290925233926001600160a01b0316917f10899a84d444a96ca3fcbcfbaeeb8c0067816ad91c242adfe434d89ecd39bb29910160405180910390a35050565b6000811161090b5760405162461bcd60e51b815260206004820152601f60248201527f5072696365206d7573742062652067726561746572207468616e207a65726f006044820152606401610336565b6040516331a9108f60e11b81526004810183905233906001600160a01b03851690636352211e90602401602060405180830381865afa158015610952573d6000803e3d6000fd5b505050506040513d601f19601f820116820180604052508101906109769190610dc8565b6001600160a01b0316146109c55760405162461bcd60e51b8152602060048201526016602482015275165bdd48191bdb89dd081bdddb881d1a1a5cc813919560521b6044820152606401610336565b600180549060006109d583610daf565b90915550506040805160e081018252600180548083526001600160a01b0387811660208086018281528688018a8152606088018a81523360808a01818152600060a08c0181815260c08d018c81529a825260028089528e83209d518e5596518d8d018054918c166001600160a01b03199092169190911790559451958c019590955591516003808c0191909155915160049a8b018054945199511515600160a81b0260ff60a81b199a1515600160a01b026001600160a81b03199096169290991691909117939093179790971695909517905584815292815286832085548154968701825590845292209093015592516323b872dd60e01b815291820192909252306024820152604481018490526323b872dd90606401600060405180830381600087803b158015610b0657600080fd5b505af1158015610b1a573d6000803e3d6000fd5b5050600154604080519182526020820186905281018490523392506001600160a01b03861691507f0d770f67a166dfb160ca3991c3a328328d7d3899464a55a6fa63448ceda495239060600160405180910390a3505050565b60006064610ba17f000000000000000000000000000000000000000000000000000000000000000082610de5565b600084815260026020526040902060030154610bbd9190610df8565b610bc79190610e0f565b92915050565b6001600160a01b038116600090815260036020908152604091829020805483518184028101840190945280845260609392830182828015610c2d57602002820191906000526020600020905b815481526020019060010190808311610c19575b50505050509050919050565b600260005403610c5c57604051633ee5aeb560e01b815260040160405180910390fd5b6002600055565b600060208284031215610c7557600080fd5b5035919050565b6001600160a01b038116811461060257600080fd5b60008060408385031215610ca457600080fd5b8235610caf81610c7c565b946020939093013593505050565b6020808252825182820181905260009190848201906040850190845b81811015610cf557835183529284019291840191600101610cd9565b50909695505050505050565b600080600060608486031215610d1657600080fd5b8335610d2181610c7c565b95602085013595506040909401359392505050565b600060208284031215610d4857600080fd5b8135610d5381610c7c565b9392505050565b634e487b7160e01b600052601160045260246000fd5b81810381811115610bc757610bc7610d5a565b634e487b7160e01b600052604160045260246000fd5b634e487b7160e01b600052603260045260246000fd5b600060018201610dc157610dc1610d5a565b5060010190565b600060208284031215610dda57600080fd5b8151610d5381610c7c565b80820180821115610bc757610bc7610d5a565b8082028115828204841417610bc757610bc7610d5a565b600082610e2c57634e487b7160e01b600052601260045260246000fd5b50049056fea2646970667358221220264bcc7051d0a01064b5c28edfb5855b46311fd3b7d39965bced6d57eddabc0564736f6c63430008140033",
  "devdoc": {
    "errors": {
      "ReentrancyGuardReentrantCall()": [
        {
          "details": "Unauthorized reentrant call."
        }
      ]
    },
    "kind": "dev",
    "methods": {},
    "version": 1
  },
  "userdoc": {
    "kind": "user",
    "methods": {},
    "version": 1
  },
  "storageLayout": {
    "storage": [
      {
        "astId": 1655,
        "contract": "contracts/NFTMarketplace.sol:Marketplace",
        "label": "_status",
        "offset": 0,
        "slot": "0",
        "type": "t_uint256"
      },
      {
        "astId": 3217,
        "contract": "contracts/NFTMarketplace.sol:Marketplace",
        "label": "itemCount",
        "offset": 0,
        "slot": "1",
        "type": "t_uint256"
      },
      {
        "astId": 3238,
        "contract": "contracts/NFTMarketplace.sol:Marketplace",
        "label": "items",
        "offset": 0,
        "slot": "2",
        "type": "t_mapping(t_uint256,t_struct(Item)3233_storage)"
      },
      {
        "astId": 3243,
        "contract": "contracts/NFTMarketplace.sol:Marketplace",
        "label": "sellerItems",
        "offset": 0,
        "slot": "3",
        "type": "t_mapping(t_address,t_array(t_uint256)dyn_storage)"
      }
    ],
    "types": {
      "t_address": {
        "encoding": "inplace",
        "label": "address",
        "numberOfBytes": "20"
      },
      "t_address_payable": {
        "encoding": "inplace",
        "label": "address payable",
        "numberOfBytes": "20"
      },
      "t_array(t_uint256)dyn_storage": {
        "base": "t_uint256",
        "encoding": "dynamic_array",
        "label": "uint256[]",
        "numberOfBytes": "32"
      },
      "t_bool": {
        "encoding": "inplace",
        "label": "bool",
        "numberOfBytes": "1"
      },
      "t_contract(IERC721)1442": {
        "encoding": "inplace",
        "label": "contract IERC721",
        "numberOfBytes": "20"
      },
      "t_mapping(t_address,t_array(t_uint256)dyn_storage)": {
        "encoding": "mapping",
        "key": "t_address",
        "label": "mapping(address => uint256[])",
        "numberOfBytes": "32",
        "value": "t_array(t_uint256)dyn_storage"
      },
      "t_mapping(t_uint256,t_struct(Item)3233_storage)": {
        "encoding": "mapping",
        "key": "t_uint256",
        "label": "mapping(uint256 => struct Marketplace.Item)",
        "numberOfBytes": "32",
        "value": "t_struct(Item)3233_storage"
      },
      "t_struct(Item)3233_storage": {
        "encoding": "inplace",
        "label": "struct Marketplace.Item",
        "members": [
          {
            "astId": 3219,
            "contract": "contracts/NFTMarketplace.sol:Marketplace",
            "label": "itemId",
            "offset": 0,
            "slot": "0",
            "type": "t_uint256"
          },
          {
            "astId": 3222,
            "contract": "contracts/NFTMarketplace.sol:Marketplace",
            "label": "nft",
            "offset": 0,
            "slot": "1",
            "type": "t_contract(IERC721)1442"
          },
          {
            "astId": 3224,
            "contract": "contracts/NFTMarketplace.sol:Marketplace",
            "label": "tokenId",
            "offset": 0,
            "slot": "2",
            "type": "t_uint256"
          },
          {
            "astId": 3226,
            "contract": "contracts/NFTMarketplace.sol:Marketplace",
            "label": "price",
            "offset": 0,
            "slot": "3",
            "type": "t_uint256"
          },
          {
            "astId": 3228,
            "contract": "contracts/NFTMarketplace.sol:Marketplace",
            "label": "seller",
            "offset": 0,
            "slot": "4",
            "type": "t_address_payable"
          },
          {
            "astId": 3230,
            "contract": "contracts/NFTMarketplace.sol:Marketplace",
            "label": "sold",
            "offset": 20,
            "slot": "4",
            "type": "t_bool"
          },
          {
            "astId": 3232,
            "contract": "contracts/NFTMarketplace.sol:Marketplace",
            "label": "listed",
            "offset": 21,
            "slot": "4",
            "type": "t_bool"
          }
        ],
        "numberOfBytes": "160"
      },
      "t_uint256": {
        "encoding": "inplace",
        "label": "uint256",
        "numberOfBytes": "32"
      }
    }
  }
}